S01600004553425F50726F6A6563745F49492E737265630D
S11300000C942A000C943C000C943C000C943C008E
S11300100C943C000C943C000C943C000C943C006C
S11300200C943C000C943C000C943C000C943C005C
S11300300C943C000C943C000C943C000C943C004C
S11300400C943C000C943C000C943C000C943C003C
S11300500C943C0011241FBECFE5D8E0DEBFCDBF19
S113006020E0A0E6B0E001C01D92A038B207E1F79D
S11300700E943E000C94D1040C94000060E080E0E7
S11300800E945D0060E082E00E945D0060E080E02C
S11300900E943D0161E082E00E948C006CE271E00C
S11300A080E00E94420260E082E00E948C0064EFE3
S11300B071E080E00E944202EDCF0F931F93CF9333
S11300C0DF931F92CDB7DEB7182F062F1982883021
S11300D030F089818F5F898318501830D0F7E98117
S11300E0F0E0EE0FFF1FEE0FFF1FEE0FFF1FE05AB1
S11300F0FF4FE10FF11D81E0808380E690E00E94D4
S1130100A4008981402F612F0E94F0000F90DF919D
S1130110CF911F910F910895CF93DF931F92CDB785
S1130120DEB7462F1982883030F099819F5F99831A
S113013088508830D0F79981682F892F0E94F00069
S11301400F90DF91CF910895BF92CF92DF92EF92FB
S1130150FF920F931F93CF93DF938C0160E070E0C5
S1130160BB24B394EB2CF12CC12CD12C22C04C9188
S1130170413021F49081982B908311C0EF0190813C
S11301802E2D3F2D442311F02C2D3D2D052E02C084
S1130190220F331F0A94E2F7209529232883189607
S11301A03397EE32F10519F76F5F7F4F68307105B1
S11301B069F0562F8B2D062E01C0880F0A94EAF79A
S11301C0D801A60FB71FEAE3F0E0D1CFDF91CF91BA
S11301D01F910F91FF90EF90DF90CF90BF90089503
S11301E0CF93DF931F92CDB7DEB78983898190E0E7
S11301F09C01220F331F820F931FEAE3F0E0E81BF8
S1130200F90B808190E0062E02C0959587950A949B
S1130210E2F780FF2EC04423B1F0898190E09C0175
S1130220220F331F820F931FEBE3F0E0E81BF90B5F
S1130230208181E090E002C0880F991F6A95E2F75F
S1130240822B808316C0898190E09C01220F331F8A
S1130250820F931FEBE3F0E0E81BF90B208181E0B0
S113026090E002C0880F991F6A95E2F78095822377
S113027080830F90DF91CF910895CF93DF931F92E6
S1130280CDB7DEB71982613089F028F0623039F0D9
S1130290633099F015C09981977B998311C0998136
S11302A09860998399819F7B99830AC09981977FEC
S11302B0998399819064998303C0998198649983FF
S11302C0882319F0823031F009C0998183B7892BD2
S11302D083BF04C0998185B5892B85BD0F90DF91BB
S11302E0CF910895CF93DF931F92CDB7DEB7698383
S11302F0882319F0823031F009C0998182B7892BA3
S113030082BF04C0998184B5892B84BD0F90DF918D
S1130310CF9108950F931F93CF93DF931F92CDB77F
S1130320DEB7182F062F498369810E9472011123B9
S113033019F0123029F007C083B7082B03BF03C09C
S113034085B5082B05BD0F90DF91CF911F910F91BB
S11303500895882319F0823031F0089583B7887F97
S113036083BF12BE089585B5887F85BD14BC0895EA
S1130370CF93C82F4F3F51056105710509F028F44B
S1130380409561E00E948A0163C0411588E05807E6
S11303906105710598F4CB01BA010E94710324EE42
S11303A03FE14FEF5DE30E9464040E944203462F45
S11303B0409562E08C2F0E948A014AC0411580E476
S11303C058076105710598F4CB01BA010E947103C5
S11303D02CEF33E04FE75CE30E9464040E94420385
S11303E0462F409563E08C2F0E948A0131C041154D
S11303F0510581E06807710598F4CB01BA010E94A8
S113040071032FEF30E04FE75BE30E9464040E9426
S11304104203462F409564E08C2F0E948A0118C045
S11304204115510584E06807710550F5CB01BA0107
S11304300E94710320E430E04FE75AE30E94640411
S11304400E944203462F409565E08C2F0E948A014A
S1130450CC2319F0C23059F013C008B600FEFDCF0A
S113046088B7816088BF80E00E94A90109C008B6EE
S113047006FEFDCF82E00E94A90188B7807488BF80
S1130480CF9108954F925F926F927F928F929F9235
S1130490AF92BF92CF92DF92EF92FF92CF93DF930E
S11304A0D82F673081E0780790F080E090E00E94D8
S11304B071032B013C0120E030E043E853E40E9447
S11304C0D0020E94B4024B015C01C0E032C088EE4D
S11304D093E0689FA001699F500D789F500D1124EF
S11304E060E070E08D2F0E94B8012FC061E080E0D1
S11304F00E948C00A5019401C301B2010E94D002A4
S113050020E030E04AEF53E40E9464040E94420376
S11305106B017C01AB01BC018D2F0E94B80160E02E
S113052080E00E948C00B701A6018D2F0E94B801C3
S1130530CF5F6C2F70E080E090E00E947303A50110
S113054094010E94CB0288238CF2DF91CF91FF901B
S1130550EF90DF90CF90BF90AF909F908F907F905F
S11305606F905F904F9008950E94450490F09F37DC
S113057048F4911116F40C945E0460E070E080E895
S11305809FE3089526F01B16611D711D811D0C94B7
S1130590D8030C94F3030E94AE0308F481E0089599
S11305A00E94E4020C9412040E940B0458F00E946E
S11305B0040440F029F45F3F29F00C94D203511154
S11305C00C945E040C9401040E94230468F39923A0
S11305D0B1F3552391F3951B550BBB27AA2762173B
S11305E07307840738F09F5F5F4F220F331F441F48
S11305F0AA1FA9F335D00E2E3AF0E0E832D091507C
S11306005040E695001CCAF72BD0FE2F29D0660F68
S1130610771F881FBB1F261737074807AB07B0E8AB
S113062009F0BB0B802DBF01FF2793585F4F3AF0B1
S11306309E3F510578F00C94D2030C945E045F3F06
S1130640E4F3983ED4F3869577956795B795F79537
S11306509F5FC9F7880F911D9695879597F908951F
S1130660E1E0660F771F881FBB1F621773078407BB
S1130670BA0720F0621B730B840BBA0BEE1F88F7CA
S1130680E09508950E942B0488F09F5798F0B92FA5
S11306909927B751B0F0E1F0660F771F881F991FB3
S11306A01AF0BA95C9F714C0B13091F00E945D04F4
S11306B0B1E008950C945D04672F782F8827B85F04
S11306C039F0B93FCCF3869577956795B395D9F70B
S11306D03EF490958095709561957F4F8F4F9F4F15
S11306E00895E89409C097FB3EF490958095709521
S11306F061957F4F8F4F9F4F9923A9F0F92F96E96A
S1130700BB279395F695879577956795B795F111DE
S1130710F8CFFAF4BB0F11F460FF1BC06F5F7F4F7B
S11307208F4F9F4F16C0882311F096E911C077238D
S113073021F09EE8872F762F05C0662371F096E896
S1130740862F70E060E02AF09A95660F771F881F65
S1130750DAF7880F9695879597F90895990F000809
S1130760550FAA0BE0E8FEEF16161706E807F9077F
S1130770C0F012161306E407F50798F0621B730B1A
S1130780840B950B39F40A2661F0232B242B252B9B
S113079021F408950A2609F4A140A6958FEF811D3E
S11307A0811D089597F99F6780E870E060E00895DF
S11307B0882371F4772321F09850872B762F07C074
S11307C0662311F499270DC09051862B70E060E0E8
S11307D02AF09A95660F771F881FDAF7880F969587
S11307E0879597F908959F3F31F0915020F48795AC
S11307F077956795B795880F911D9695879597F985
S113080008959FEF80EC089500240A9416161706A5
S113081018060906089500240A94121613061406ED
S113082005060895092E0394000C11F4882352F050
S1130830BB0F40F4BF2B11F460FF04C06F5F7F4F08
S11308408F4F9F4F089557FD9058440F551F59F0EF
S11308505F3F71F04795880F97FB991F61F09F3FA9
S113086079F087950895121613061406551FF2CFD2
S11308704695F1DF08C0161617061806991FF1CF22
S1130880869571056105089408950E942B04A0F0D3
S1130890BEE7B91788F4BB279F3860F41616B11D5C
S11308A0672F782F8827985FF7CF86957795679578
S11308B0B11D93959639C8F30895E894BB2766272C
S11308C07727CB0197F908950E9477040C941204BA
S11308D00E94040438F00E940B0420F0952311F0C8
S11308E00C94D2030C94010411240C945E040E9411
S11308F0230470F3959FC1F3950F50E0551F629F39
S1130900F001729FBB27F00DB11D639FAA27F00D64
S1130910B11DAA1F649F6627B00DA11D661F829F8B
S11309202227B00DA11D621F739FB00DA11D621F70
S1130930839FA00D611D221F749F3327A00D611D8D
S1130940231F849F600D211D822F762F6A2F11246F
S11309509F5750409AF0F1F088234AF0EE0FFF1FA2
S1130960BB1F661F771F881F91505040A9F79E3FF9
S1130970510580F00C94D2030C945E045F3FE4F3C1
S1130980983ED4F3869577956795B795F795E7954F
S11309909F5FC1F7FE2B880F911D9695879597F958
S10909A00895F894FFCF56
S9030000FC
